{
  "_format": "hh-sol-artifact-1",
  "contractName": "Controller",
  "sourceName": "contracts/core/Controller.sol",
  "abi": [
    {
      "inputs": [
        {
          "internalType": "address",
          "name": "_token",
          "type": "address"
        }
      ],
      "stateMutability": "nonpayable",
      "type": "constructor"
    },
    {
      "anonymous": false,
      "inputs": [
        {
          "indexed": true,
          "internalType": "address",
          "name": "account",
          "type": "address"
        },
        {
          "indexed": false,
          "internalType": "uint256",
          "name": "base",
          "type": "uint256"
        },
        {
          "indexed": false,
          "internalType": "uint256",
          "name": "quote",
          "type": "uint256"
        },
        {
          "indexed": false,
          "internalType": "uint256",
          "name": "minted",
          "type": "uint256"
        }
      ],
      "name": "Minted",
      "type": "event"
    },
    {
      "anonymous": false,
      "inputs": [
        {
          "indexed": true,
          "internalType": "address",
          "name": "previousOwner",
          "type": "address"
        },
        {
          "indexed": true,
          "internalType": "address",
          "name": "newOwner",
          "type": "address"
        }
      ],
      "name": "OwnershipTransferred",
      "type": "event"
    },
    {
      "anonymous": false,
      "inputs": [
        {
          "indexed": true,
          "internalType": "address",
          "name": "account",
          "type": "address"
        },
        {
          "indexed": false,
          "internalType": "uint256",
          "name": "base",
          "type": "uint256"
        },
        {
          "indexed": false,
          "internalType": "uint256",
          "name": "quote",
          "type": "uint256"
        },
        {
          "indexed": false,
          "internalType": "uint256",
          "name": "burned",
          "type": "uint256"
        }
      ],
      "name": "Redeemed",
      "type": "event"
    },
    {
      "anonymous": false,
      "inputs": [
        {
          "indexed": true,
          "internalType": "address",
          "name": "by",
          "type": "address"
        },
        {
          "indexed": true,
          "internalType": "address",
          "name": "newRouter",
          "type": "address"
        }
      ],
      "name": "RouterUpdated",
      "type": "event"
    },
    {
      "anonymous": false,
      "inputs": [
        {
          "indexed": true,
          "internalType": "address",
          "name": "by",
          "type": "address"
        },
        {
          "indexed": true,
          "internalType": "address",
          "name": "token",
          "type": "address"
        },
        {
          "indexed": false,
          "internalType": "bool",
          "name": "isWhitelisted",
          "type": "bool"
        },
        {
          "indexed": false,
          "internalType": "bool",
          "name": "isBaseToken",
          "type": "bool"
        }
      ],
      "name": "WhitelistUpdated",
      "type": "event"
    },
    {
      "inputs": [
        {
          "internalType": "uint256",
          "name": "amount",
          "type": "uint256"
        },
        {
          "internalType": "uint8",
          "name": "inDecimals",
          "type": "uint8"
        },
        {
          "internalType": "uint8",
          "name": "outDecimals",
          "type": "uint8"
        }
      ],
      "name": "amountToDecimal",
      "outputs": [
        {
          "internalType": "uint256",
          "name": "",
          "type": "uint256"
        }
      ],
      "stateMutability": "pure",
      "type": "function"
    },
    {
      "inputs": [
        {
          "internalType": "address",
          "name": "",
          "type": "address"
        }
      ],
      "name": "collateralDeposited",
      "outputs": [
        {
          "internalType": "uint256",
          "name": "",
          "type": "uint256"
        }
      ],
      "stateMutability": "view",
      "type": "function"
    },
    {
      "inputs": [
        {
          "internalType": "uint256",
          "name": "",
          "type": "uint256"
        }
      ],
      "name": "collateralList",
      "outputs": [
        {
          "internalType": "address",
          "name": "",
          "type": "address"
        }
      ],
      "stateMutability": "view",
      "type": "function"
    },
    {
      "inputs": [
        {
          "internalType": "address",
          "name": "",
          "type": "address"
        }
      ],
      "name": "collateralTokens",
      "outputs": [
        {
          "internalType": "bool",
          "name": "",
          "type": "bool"
        }
      ],
      "stateMutability": "view",
      "type": "function"
    },
    {
      "inputs": [
        {
          "internalType": "address",
          "name": "market",
          "type": "address"
        },
        {
          "internalType": "address",
          "name": "collateralToken",
          "type": "address"
        },
        {
          "internalType": "uint256",
          "name": "amount",
          "type": "uint256"
        }
      ],
      "name": "depositOnly",
      "outputs": [],
      "stateMutability": "nonpayable",
      "type": "function"
    },
    {
      "inputs": [],
      "name": "getCollateralInfo",
      "outputs": [
        {
          "components": [
            {
              "internalType": "address",
              "name": "token",
              "type": "address"
            },
            {
              "internalType": "uint256",
              "name": "redeemable",
              "type": "uint256"
            },
            {
              "internalType": "uint256",
              "name": "minted",
              "type": "uint256"
            }
          ],
          "internalType": "struct Controller.CollateralInfo[]",
          "name": "info",
          "type": "tuple[]"
        }
      ],
      "stateMutability": "view",
      "type": "function"
    },
    {
      "inputs": [
        {
          "internalType": "address",
          "name": "market",
          "type": "address"
        },
        {
          "internalType": "address",
          "name": "collateralToken",
          "type": "address"
        },
        {
          "internalType": "uint256",
          "name": "amount",
          "type": "uint256"
        }
      ],
      "name": "mint",
      "outputs": [],
      "stateMutability": "nonpayable",
      "type": "function"
    },
    {
      "inputs": [
        {
          "internalType": "address",
          "name": "",
          "type": "address"
        }
      ],
      "name": "mintedPerCollateral",
      "outputs": [
        {
          "internalType": "uint256",
          "name": "",
          "type": "uint256"
        }
      ],
      "stateMutability": "view",
      "type": "function"
    },
    {
      "inputs": [],
      "name": "owner",
      "outputs": [
        {
          "internalType": "address",
          "name": "",
          "type": "address"
        }
      ],
      "stateMutability": "view",
      "type": "function"
    },
    {
      "inputs": [
        {
          "internalType": "address",
          "name": "market",
          "type": "address"
        },
        {
          "internalType": "address",
          "name": "collateralToken",
          "type": "address"
        },
        {
          "internalType": "uint256",
          "name": "amount",
          "type": "uint256"
        }
      ],
      "name": "redeem",
      "outputs": [],
      "stateMutability": "nonpayable",
      "type": "function"
    },
    {
      "inputs": [
        {
          "internalType": "address",
          "name": "",
          "type": "address"
        }
      ],
      "name": "redeemable",
      "outputs": [
        {
          "internalType": "uint256",
          "name": "",
          "type": "uint256"
        }
      ],
      "stateMutability": "view",
      "type": "function"
    },
    {
      "inputs": [],
      "name": "renounceOwnership",
      "outputs": [],
      "stateMutability": "nonpayable",
      "type": "function"
    },
    {
      "inputs": [],
      "name": "router",
      "outputs": [
        {
          "internalType": "contract IDEXRouter",
          "name": "",
          "type": "address"
        }
      ],
      "stateMutability": "view",
      "type": "function"
    },
    {
      "inputs": [],
      "name": "token",
      "outputs": [
        {
          "internalType": "contract XDToken",
          "name": "",
          "type": "address"
        }
      ],
      "stateMutability": "view",
      "type": "function"
    },
    {
      "inputs": [
        {
          "internalType": "address",
          "name": "newOwner",
          "type": "address"
        }
      ],
      "name": "transferOwnership",
      "outputs": [],
      "stateMutability": "nonpayable",
      "type": "function"
    },
    {
      "inputs": [
        {
          "internalType": "address",
          "name": "newRouter",
          "type": "address"
        }
      ],
      "name": "updateRouter",
      "outputs": [],
      "stateMutability": "nonpayable",
      "type": "function"
    },
    {
      "inputs": [
        {
          "internalType": "address",
          "name": "tokenAddress",
          "type": "address"
        },
        {
          "internalType": "bool",
          "name": "isWhitelisted",
          "type": "bool"
        },
        {
          "internalType": "bool",
          "name": "isBaseToken",
          "type": "bool"
        }
      ],
      "name": "whitelistCollateral",
      "outputs": [],
      "stateMutability": "nonpayable",
      "type": "function"
    }
  ],
  "bytecode": "0x608060405234801561001057600080fd5b5060405161185738038061185783398101604081905261002f916100b1565b61003833610061565b60018055600280546001600160a01b0319166001600160a01b03929092169190911790556100e1565b600080546001600160a01b038381166001600160a01b0319831681178455604051919092169283917f8be0079c531659141344cd1fd0a4f28419497f9722a3daafe3b4186f6b6457e09190a35050565b6000602082840312156100c357600080fd5b81516001600160a01b03811681146100da57600080fd5b9392505050565b611767806100f06000396000f3fe608060405234801561001057600080fd5b506004361061010b5760003560e01c80638da5cb5b116100a2578063c851cc3211610071578063c851cc321461023d578063cffbc29714610250578063f2fde38b14610283578063f887ea4014610296578063fc0c546a146102a957600080fd5b80638da5cb5b146101f3578063940c3f45146102045780639507ad3814610217578063c6c3bbe61461022a57600080fd5b80633024a912116100de5780633024a9121461018057806337ffc324146101ab578063484267a4146101cb578063715018a6146101eb57600080fd5b80630a4b9ec2146101105780630e6dfcd5146101435780632e0bcb43146101585780632e13168b1461016d575b600080fd5b61013061011e366004611424565b60076020526000908152604090205481565b6040519081526020015b60405180910390f35b610156610151366004611441565b6102bc565b005b61016061066e565b60405161013a9190611482565b61015661017b3660046114f2565b610792565b61019361018e36600461153d565b610864565b6040516001600160a01b03909116815260200161013a565b6101306101b9366004611424565b60086020526000908152604090205481565b6101306101d9366004611424565b60096020526000908152604090205481565b61015661088e565b6000546001600160a01b0316610193565b610130610212366004611565565b6108c4565b610156610225366004611441565b610963565b610156610238366004611441565b610c0d565b61015661024b366004611424565b6110ad565b61027361025e366004611424565b60046020526000908152604090205460ff1681565b604051901515815260200161013a565b610156610291366004611424565b611123565b600354610193906001600160a01b031681565b600254610193906001600160a01b031681565b6001600160a01b03821660009081526004602052604090205460ff166102fd5760405162461bcd60e51b81526004016102f49061159c565b60405180910390fd5b60008290506000339050600061041d8473__$a2af9b17ef286bf91a5b9c9e1bab673121$__6309d760de9091866001600160a01b031663313ce5676040518163ffffffff1660e01b815260040160206040518083038186803b15801561036257600080fd5b505afa158015610376573d6000803e3d6000fd5b505050506040513d601f19601f8201168201806040525081019061039a91906115c6565b6040516001600160e01b031960e085901b168152600481019290925260ff1660248201526012604482015260640160206040518083038186803b1580156103e057600080fd5b505af41580156103f4573d6000803e3d6000fd5b505050506040513d601f19601f8201168201806040525081019061041891906115e3565b6111be565b6001600160a01b03868116600081815260066020908152604080832054815160c0810183528d8716815292830187815260ff90911680151584840190815260608501968752608085018d81528b891660a087019081526003549551638d1d8af560e01b815287518b16600482015294516024860152915115156044850152965188166064840152955160848301529451861660a482015295965089959394919383929190911690638d1d8af59060c4016040805180830381600087803b1580156104e657600080fd5b505af11580156104fa573d6000803e3d6000fd5b505050506040513d601f19601f8201168201806040525081019061051e91906115fc565b6001600160a01b038c166000908152600760205260408120805493955091935083928c92919061054f908490611636565b90915550506001600160a01b038b16600090815260096020526040812080548c929061057c908490611636565b90915550506001600160a01b038b16600090815260086020526040812080548392906105a9908490611636565b9091555050600254604051632770a7eb60e21b81526001600160a01b038a811660048301526024820184905290911690639dc29fac90604401600060405180830381600087803b1580156105fc57600080fd5b505af1158015610610573d6000803e3d6000fd5b505060408051868152602081018690529081018490526001600160a01b038b1692507f484c40561359f3e3b8be9101897f8680aa82fbe1df9fd9038e0dbc6284032646915060600160405180910390a2505050505050505050505050565b60055460609067ffffffffffffffff81111561068c5761068c61164d565b6040519080825280602002602001820160405280156106ea57816020015b6106d7604051806060016040528060006001600160a01b0316815260200160008152602001600081525090565b8152602001906001900390816106aa5790505b50905060005b60055481101561078e5760006005828154811061070f5761070f611663565b6000918252602080832090910154604080516060810182526001600160a01b039092168083528085526009845281852054838501528085526008909352928390205492810192909252845190925084908490811061076f5761076f611663565b602002602001018190525050808061078690611679565b9150506106f0565b5090565b6000546001600160a01b031633146107bc5760405162461bcd60e51b81526004016102f490611694565b6001600160a01b038316600090815260046020908152604080832080548615801560ff1992831617909255600690935292208054841515921691909117905561080d57610808836111d8565b610816565b61081683611280565b60408051831515815282151560208201526001600160a01b0385169133917fa1722c493396a9db8ab972a884fcc6028f1eb1a84c51a04316bb4293a263cb52910160405180910390a3505050565b6005818154811061087457600080fd5b6000918252602090912001546001600160a01b0316905081565b6000546001600160a01b031633146108b85760405162461bcd60e51b81526004016102f490611694565b6108c26000611384565b565b6040516304ebb06f60e11b81526004810184905260ff80841660248301528216604482015260009073__$a2af9b17ef286bf91a5b9c9e1bab673121$__906309d760de9060640160206040518083038186803b15801561092357600080fd5b505af4158015610937573d6000803e3d6000fd5b505050506040513d601f19601f8201168201806040525081019061095b91906115e3565b949350505050565b6001600160a01b03821660009081526004602052604090205460ff1661099b5760405162461bcd60e51b81526004016102f49061159c565b604051636eb1769f60e11b81523360048201819052306024830152839183906001600160a01b0384169063dd62ed3e9060440160206040518083038186803b1580156109e657600080fd5b505afa1580156109fa573d6000803e3d6000fd5b505050506040513d601f19601f82011682018060405250810190610a1e91906115e3565b1015610a5c5760405162461bcd60e51b815260206004820152600d60248201526c10d50e8808505c1c1c9bdd9959609a1b60448201526064016102f4565b600354604051638ea1236b60e01b81526001600160a01b0387811660048301526000921690638ea1236b9060240160206040518083038186803b158015610aa257600080fd5b505afa158015610ab6573d6000803e3d6000fd5b505050506040513d601f19601f82011682018060405250810190610ada91906116c9565b6001600160a01b038616600090815260076020526040812080549293508692909190610b079084906116e6565b90915550506040516323b872dd60e01b81526001600160a01b0383811660048301528281166024830152604482018690528416906323b872dd90606401602060405180830381600087803b158015610b5e57600080fd5b505af1158015610b72573d6000803e3d6000fd5b505050506040513d601f19601f82011682018060405250810190610b9691906116fe565b5060035460405163224f70a160e11b81526001600160a01b0388811660048301528781166024830152604482018790529091169063449ee14290606401600060405180830381600087803b158015610bed57600080fd5b505af1158015610c01573d6000803e3d6000fd5b50505050505050505050565b6001600160a01b03821660009081526004602052604090205460ff16610c455760405162461bcd60e51b81526004016102f49061159c565b604051636eb1769f60e11b81523360048201819052306024830152839183906001600160a01b0384169063dd62ed3e9060440160206040518083038186803b158015610c9057600080fd5b505afa158015610ca4573d6000803e3d6000fd5b505050506040513d601f19601f82011682018060405250810190610cc891906115e3565b1015610d065760405162461bcd60e51b815260206004820152600d60248201526c10d50e8808505c1c1c9bdd9959609a1b60448201526064016102f4565b600354604051638ea1236b60e01b81526001600160a01b0387811660048301526000921690638ea1236b9060240160206040518083038186803b158015610d4c57600080fd5b505afa158015610d60573d6000803e3d6000fd5b505050506040513d601f19601f82011682018060405250810190610d8491906116c9565b6040516323b872dd60e01b81526001600160a01b038481166004830152808316602483015260448201879052919250908416906323b872dd90606401602060405180830381600087803b158015610dda57600080fd5b505af1158015610dee573d6000803e3d6000fd5b505050506040513d601f19601f82011682018060405250810190610e1291906116fe565b506000610e6e8573__$a2af9b17ef286bf91a5b9c9e1bab673121$__6309d760de9091876001600160a01b031663313ce5676040518163ffffffff1660e01b815260040160206040518083038186803b15801561036257600080fd5b6001600160a01b03878116600081815260066020908152604080832054815160a0810183528e8716815292830187815260ff90911680151584840190815260608501968752608085018e815260035494516306101bc960e31b815286518a16600482015293516024850152905115156044840152955187166064830152945160848201529596508a959394919383929190911690633080de489060a4016040805180830381600087803b158015610f2457600080fd5b505af1158015610f38573d6000803e3d6000fd5b505050506040513d601f19601f82011682018060405250810190610f5c91906115fc565b6001600160a01b038d166000908152600760205260408120805493955091935083928d929190610f8d9084906116e6565b90915550506001600160a01b038c16600090815260096020526040812080548d9290610fba9084906116e6565b90915550506001600160a01b038c1660009081526008602052604081208054839290610fe79084906116e6565b90915550506002546040516340c10f1960e01b81526001600160a01b038b8116600483015260248201849052909116906340c10f1990604401600060405180830381600087803b15801561103a57600080fd5b505af115801561104e573d6000803e3d6000fd5b505060408051868152602081018690529081018490526001600160a01b038c1692507f5a3358a3d27a5373c0df2604662088d37894d56b7cfd27f315770440f4e0d919915060600160405180910390a250505050505050505050505050565b6000546001600160a01b031633146110d75760405162461bcd60e51b81526004016102f490611694565b600380546001600160a01b0319166001600160a01b03831690811790915560405133907f02dc5c233404867c793b749c6d644beb2277536d18a7e7974d3f238e4c6f168490600090a350565b6000546001600160a01b0316331461114d5760405162461bcd60e51b81526004016102f490611694565b6001600160a01b0381166111b25760405162461bcd60e51b815260206004820152602660248201527f4f776e61626c653a206e6577206f776e657220697320746865207a65726f206160448201526564647265737360d01b60648201526084016102f4565b6111bb81611384565b50565b60006111d282670dd280b9144a00006113d4565b92915050565b60005b60055481101561122d57600581815481106111f8576111f8611663565b6000918252602090912001546001600160a01b038381169116141561121b575050565b8061122581611679565b9150506111db565b50600580546001810182556000919091527f036b6384b5eca791c62761152d0c79bb0604c104a5fb6f4eb0703f3154bb3db00180546001600160a01b0319166001600160a01b0392909216919091179055565b60001960005b6005548110156112dc57600581815481106112a3576112a3611663565b6000918252602090912001546001600160a01b03848116911614156112ca578091506112dc565b806112d481611679565b915050611286565b50600019811461138057600580546112f2611663565b600091825260209091200154600580546001600160a01b03909216918390811061131e5761131e611663565b9060005260206000200160006101000a8154816001600160a01b0302191690836001600160a01b03160217905550600580548061135d5761135d61171b565b600082815260209020810160001990810180546001600160a01b03191690550190555b5050565b600080546001600160a01b038381166001600160a01b0319831681178455604051919092169283917f8be0079c531659141344cd1fd0a4f28419497f9722a3daafe3b4186f6b6457e09190a35050565b60006113e98383670de0b6b3a76400006113f0565b9392505050565b82820281151584158583048514171661140857600080fd5b0492915050565b6001600160a01b03811681146111bb57600080fd5b60006020828403121561143657600080fd5b81356113e98161140f565b60008060006060848603121561145657600080fd5b83356114618161140f565b925060208401356114718161140f565b929592945050506040919091013590565b602080825282518282018190526000919060409081850190868401855b828110156114d757815180516001600160a01b031685528681015187860152850151858501526060909301929085019060010161149f565b5091979650505050505050565b80151581146111bb57600080fd5b60008060006060848603121561150757600080fd5b83356115128161140f565b92506020840135611522816114e4565b91506040840135611532816114e4565b809150509250925092565b60006020828403121561154f57600080fd5b5035919050565b60ff811681146111bb57600080fd5b60008060006060848603121561157a57600080fd5b83359250602084013561158c81611556565b9150604084013561153281611556565b60208082526010908201526f10d50e880855da1a5d195b1a5cdd195960821b604082015260600190565b6000602082840312156115d857600080fd5b81516113e981611556565b6000602082840312156115f557600080fd5b5051919050565b6000806040838503121561160f57600080fd5b505080516020909101519092909150565b634e487b7160e01b600052601160045260246000fd5b60008282101561164857611648611620565b500390565b634e487b7160e01b600052604160045260246000fd5b634e487b7160e01b600052603260045260246000fd5b600060001982141561168d5761168d611620565b5060010190565b6020808252818101527f4f776e61626c653a2063616c6c6572206973206e6f7420746865206f776e6572604082015260600190565b6000602082840312156116db57600080fd5b81516113e98161140f565b600082198211156116f9576116f9611620565b500190565b60006020828403121561171057600080fd5b81516113e9816114e4565b634e487b7160e01b600052603160045260246000fdfea264697066735822122073f55c90c24f630eb615bdfaccefd17da6fede1438708005150497371420d83e64736f6c63430008090033",
  "linkReferences": {
    "contracts/lib/DecimalLib.sol": {
      "DecimalLib": [
        {
          "length": 20,
          "start": 1023
        },
        {
          "length": 20,
          "start": 2526
        },
        {
          "length": 20,
          "start": 3851
        }
      ]
    }
  },
  "deployedLinkReferences": {
    "contracts/lib/DecimalLib.sol": {
      "DecimalLib": [
        {
          "length": 20,
          "start": 783
        },
        {
          "length": 20,
          "start": 2286
        },
        {
          "length": 20,
          "start": 3611
        }
      ]
    }
  }
}