{
    "_format": "hh-sol-artifact-1",
    "contractName": "Controller",
    "sourceName": "contracts/core/Controller.sol",
    "abi": [
        {
            "inputs": [
                {
                    "internalType": "address",
                    "name": "_token",
                    "type": "address"
                }
            ],
            "stateMutability": "nonpayable",
            "type": "constructor"
        },
        {
            "anonymous": false,
            "inputs": [
                {
                    "indexed": true,
                    "internalType": "address",
                    "name": "account",
                    "type": "address"
                },
                {
                    "indexed": false,
                    "internalType": "uint256",
                    "name": "base",
                    "type": "uint256"
                },
                {
                    "indexed": false,
                    "internalType": "uint256",
                    "name": "quote",
                    "type": "uint256"
                },
                {
                    "indexed": false,
                    "internalType": "uint256",
                    "name": "minted",
                    "type": "uint256"
                }
            ],
            "name": "Minted",
            "type": "event"
        },
        {
            "anonymous": false,
            "inputs": [
                {
                    "indexed": true,
                    "internalType": "address",
                    "name": "previousOwner",
                    "type": "address"
                },
                {
                    "indexed": true,
                    "internalType": "address",
                    "name": "newOwner",
                    "type": "address"
                }
            ],
            "name": "OwnershipTransferred",
            "type": "event"
        },
        {
            "anonymous": false,
            "inputs": [
                {
                    "indexed": true,
                    "internalType": "address",
                    "name": "account",
                    "type": "address"
                },
                {
                    "indexed": false,
                    "internalType": "uint256",
                    "name": "base",
                    "type": "uint256"
                },
                {
                    "indexed": false,
                    "internalType": "uint256",
                    "name": "quote",
                    "type": "uint256"
                },
                {
                    "indexed": false,
                    "internalType": "uint256",
                    "name": "burned",
                    "type": "uint256"
                }
            ],
            "name": "Redeemed",
            "type": "event"
        },
        {
            "anonymous": false,
            "inputs": [
                {
                    "indexed": true,
                    "internalType": "address",
                    "name": "by",
                    "type": "address"
                },
                {
                    "indexed": true,
                    "internalType": "address",
                    "name": "newRouter",
                    "type": "address"
                }
            ],
            "name": "RouterUpdated",
            "type": "event"
        },
        {
            "anonymous": false,
            "inputs": [
                {
                    "indexed": true,
                    "internalType": "address",
                    "name": "by",
                    "type": "address"
                },
                {
                    "indexed": true,
                    "internalType": "address",
                    "name": "token",
                    "type": "address"
                },
                {
                    "indexed": false,
                    "internalType": "bool",
                    "name": "isWhitelisted",
                    "type": "bool"
                }
            ],
            "name": "WhitelistUpdated",
            "type": "event"
        },
        {
            "inputs": [
                {
                    "internalType": "uint256",
                    "name": "amount",
                    "type": "uint256"
                },
                {
                    "internalType": "uint8",
                    "name": "inDecimals",
                    "type": "uint8"
                },
                {
                    "internalType": "uint8",
                    "name": "outDecimals",
                    "type": "uint8"
                }
            ],
            "name": "amountToDecimal",
            "outputs": [
                {
                    "internalType": "uint256",
                    "name": "",
                    "type": "uint256"
                }
            ],
            "stateMutability": "pure",
            "type": "function"
        },
        {
            "inputs": [
                {
                    "internalType": "address",
                    "name": "",
                    "type": "address"
                }
            ],
            "name": "collateralTokens",
            "outputs": [
                {
                    "internalType": "bool",
                    "name": "",
                    "type": "bool"
                }
            ],
            "stateMutability": "view",
            "type": "function"
        },
        {
            "inputs": [
                {
                    "internalType": "address",
                    "name": "baseToken",
                    "type": "address"
                },
                {
                    "internalType": "address",
                    "name": "collateralToken",
                    "type": "address"
                },
                {
                    "internalType": "uint256",
                    "name": "amount",
                    "type": "uint256"
                }
            ],
            "name": "depositOnly",
            "outputs": [],
            "stateMutability": "nonpayable",
            "type": "function"
        },
        {
            "inputs": [
                {
                    "internalType": "address",
                    "name": "baseToken",
                    "type": "address"
                },
                {
                    "internalType": "address",
                    "name": "collateralToken",
                    "type": "address"
                },
                {
                    "internalType": "uint256",
                    "name": "amount",
                    "type": "uint256"
                }
            ],
            "name": "mint",
            "outputs": [],
            "stateMutability": "nonpayable",
            "type": "function"
        },
        {
            "inputs": [],
            "name": "owner",
            "outputs": [
                {
                    "internalType": "address",
                    "name": "",
                    "type": "address"
                }
            ],
            "stateMutability": "view",
            "type": "function"
        },
        {
            "inputs": [
                {
                    "internalType": "address",
                    "name": "baseToken",
                    "type": "address"
                },
                {
                    "internalType": "address",
                    "name": "collateralToken",
                    "type": "address"
                },
                {
                    "internalType": "uint256",
                    "name": "amount",
                    "type": "uint256"
                }
            ],
            "name": "redeem",
            "outputs": [],
            "stateMutability": "nonpayable",
            "type": "function"
        },
        {
            "inputs": [],
            "name": "renounceOwnership",
            "outputs": [],
            "stateMutability": "nonpayable",
            "type": "function"
        },
        {
            "inputs": [],
            "name": "router",
            "outputs": [
                {
                    "internalType": "contract IDEXRouter",
                    "name": "",
                    "type": "address"
                }
            ],
            "stateMutability": "view",
            "type": "function"
        },
        {
            "inputs": [],
            "name": "token",
            "outputs": [
                {
                    "internalType": "contract DNToken",
                    "name": "",
                    "type": "address"
                }
            ],
            "stateMutability": "view",
            "type": "function"
        },
        {
            "inputs": [
                {
                    "internalType": "address",
                    "name": "newOwner",
                    "type": "address"
                }
            ],
            "name": "transferOwnership",
            "outputs": [],
            "stateMutability": "nonpayable",
            "type": "function"
        },
        {
            "inputs": [
                {
                    "internalType": "address",
                    "name": "newRouter",
                    "type": "address"
                }
            ],
            "name": "updateRouter",
            "outputs": [],
            "stateMutability": "nonpayable",
            "type": "function"
        },
        {
            "inputs": [
                {
                    "internalType": "address",
                    "name": "tokenAddress",
                    "type": "address"
                },
                {
                    "internalType": "bool",
                    "name": "isWhitelisted",
                    "type": "bool"
                }
            ],
            "name": "whitelistCollateral",
            "outputs": [],
            "stateMutability": "nonpayable",
            "type": "function"
        }
    ],
    "bytecode": "0x608060405234801561001057600080fd5b50604051610f04380380610f0483398101604081905261002f916100b1565b61003833610061565b60018055600280546001600160a01b0319166001600160a01b03929092169190911790556100e1565b600080546001600160a01b038381166001600160a01b0319831681178455604051919092169283917f8be0079c531659141344cd1fd0a4f28419497f9722a3daafe3b4186f6b6457e09190a35050565b6000602082840312156100c357600080fd5b81516001600160a01b03811681146100da57600080fd5b9392505050565b610e14806100f06000396000f3fe608060405234801561001057600080fd5b50600436106100b45760003560e01c8063c6c3bbe611610071578063c6c3bbe614610147578063c851cc321461015a578063cffbc2971461016d578063f2fde38b146101a0578063f887ea40146101b3578063fc0c546a146101c657600080fd5b80630e6dfcd5146100b9578063715018a6146100ce5780638da5cb5b146100d6578063940c3f45146101005780639507ad3814610121578063b9e235ab14610134575b600080fd5b6100cc6100c7366004610c10565b6101d9565b005b6100cc610336565b6000546001600160a01b03165b6040516001600160a01b0390911681526020015b60405180910390f35b61011361010e366004610c67565b610375565b6040519081526020016100f7565b6100cc61012f366004610c10565b610414565b6100cc610142366004610cb1565b6106a2565b6100cc610155366004610c10565b61072d565b6100cc610168366004610cea565b610a9a565b61019061017b366004610cea565b60046020526000908152604090205460ff1681565b60405190151581526020016100f7565b6100cc6101ae366004610cea565b610b10565b6003546100e3906001600160a01b031681565b6002546100e3906001600160a01b031681565b60035460405163b222f9ab60e01b81526001600160a01b03858116600483015280851660248301526044820184905233606483018190529285926000928392169063b222f9ab906084016040805180830381600087803b15801561023c57600080fd5b505af1158015610250573d6000803e3d6000fd5b505050506040513d601f19601f820116820180604052508101906102749190610d0e565b600254604051632770a7eb60e21b81526001600160a01b0388811660048301526024820184905293955091935083921690639dc29fac90604401600060405180830381600087803b1580156102c857600080fd5b505af11580156102dc573d6000803e3d6000fd5b505060408051868152602081018690529081018490526001600160a01b03881692507f484c40561359f3e3b8be9101897f8680aa82fbe1df9fd9038e0dbc6284032646915060600160405180910390a25050505050505050565b6000546001600160a01b031633146103695760405162461bcd60e51b815260040161036090610d32565b60405180910390fd5b6103736000610bab565b565b6040516304ebb06f60e11b81526004810184905260ff80841660248301528216604482015260009073__$a2af9b17ef286bf91a5b9c9e1bab673121$__906309d760de9060640160206040518083038186803b1580156103d457600080fd5b505af41580156103e8573d6000803e3d6000fd5b505050506040513d601f19601f8201168201806040525081019061040c9190610d67565b949350505050565b6001600160a01b03821660009081526004602052604090205460ff1661046f5760405162461bcd60e51b815260206004820152601060248201526f10d50e880855da1a5d195b1a5cdd195960821b6044820152606401610360565b604051636eb1769f60e11b81523360048201819052306024830152839183906001600160a01b0384169063dd62ed3e9060440160206040518083038186803b1580156104ba57600080fd5b505afa1580156104ce573d6000803e3d6000fd5b505050506040513d601f19601f820116820180604052508101906104f29190610d67565b10156105305760405162461bcd60e51b815260206004820152600d60248201526c10d50e8808505c1c1c9bdd9959609a1b6044820152606401610360565b600354604051638ea1236b60e01b81526001600160a01b0387811660048301526000921690638ea1236b9060240160206040518083038186803b15801561057657600080fd5b505afa15801561058a573d6000803e3d6000fd5b505050506040513d601f19601f820116820180604052508101906105ae9190610d80565b6040516323b872dd60e01b81529091506001600160a01b038416906323b872dd906105e190859085908990600401610d9d565b602060405180830381600087803b1580156105fb57600080fd5b505af115801561060f573d6000803e3d6000fd5b505050506040513d601f19601f820116820180604052508101906106339190610dc1565b5060035460405163224f70a160e11b81526001600160a01b039091169063449ee1429061066890899089908990600401610d9d565b600060405180830381600087803b15801561068257600080fd5b505af1158015610696573d6000803e3d6000fd5b50505050505050505050565b6000546001600160a01b031633146106cc5760405162461bcd60e51b815260040161036090610d32565b6001600160a01b038216600081815260046020908152604091829020805460ff1916851515908117909155915191825233917fd9c6c3eabe38e3b9a606a66358d8f225489216a59eeba66facefb7d916635266910160405180910390a35050565b6001600160a01b03821660009081526004602052604090205460ff166107885760405162461bcd60e51b815260206004820152601060248201526f10d50e880855da1a5d195b1a5cdd195960821b6044820152606401610360565b604051636eb1769f60e11b81523360048201819052306024830152839183906001600160a01b0384169063dd62ed3e9060440160206040518083038186803b1580156107d357600080fd5b505afa1580156107e7573d6000803e3d6000fd5b505050506040513d601f19601f8201168201806040525081019061080b9190610d67565b10156108495760405162461bcd60e51b815260206004820152600d60248201526c10d50e8808505c1c1c9bdd9959609a1b6044820152606401610360565b600354604051638ea1236b60e01b81526001600160a01b0387811660048301526000921690638ea1236b9060240160206040518083038186803b15801561088f57600080fd5b505afa1580156108a3573d6000803e3d6000fd5b505050506040513d601f19601f820116820180604052508101906108c79190610d80565b6040516323b872dd60e01b81529091506001600160a01b038416906323b872dd906108fa90859085908990600401610d9d565b602060405180830381600087803b15801561091457600080fd5b505af1158015610928573d6000803e3d6000fd5b505050506040513d601f19601f8201168201806040525081019061094c9190610dc1565b506003546040516362198e6760e11b815260009182916001600160a01b039091169063c4331cce90610986908b908b908b90600401610d9d565b6040805180830381600087803b15801561099f57600080fd5b505af11580156109b3573d6000803e3d6000fd5b505050506040513d601f19601f820116820180604052508101906109d79190610d0e565b6002546040516340c10f1960e01b81526001600160a01b03888116600483015260248201849052939550919350839216906340c10f1990604401600060405180830381600087803b158015610a2b57600080fd5b505af1158015610a3f573d6000803e3d6000fd5b505060408051868152602081018690529081018490526001600160a01b03881692507f5a3358a3d27a5373c0df2604662088d37894d56b7cfd27f315770440f4e0d919915060600160405180910390a2505050505050505050565b6000546001600160a01b03163314610ac45760405162461bcd60e51b815260040161036090610d32565b600380546001600160a01b0319166001600160a01b03831690811790915560405133907f02dc5c233404867c793b749c6d644beb2277536d18a7e7974d3f238e4c6f168490600090a350565b6000546001600160a01b03163314610b3a5760405162461bcd60e51b815260040161036090610d32565b6001600160a01b038116610b9f5760405162461bcd60e51b815260206004820152602660248201527f4f776e61626c653a206e6577206f776e657220697320746865207a65726f206160448201526564647265737360d01b6064820152608401610360565b610ba881610bab565b50565b600080546001600160a01b038381166001600160a01b0319831681178455604051919092169283917f8be0079c531659141344cd1fd0a4f28419497f9722a3daafe3b4186f6b6457e09190a35050565b6001600160a01b0381168114610ba857600080fd5b600080600060608486031215610c2557600080fd5b8335610c3081610bfb565b92506020840135610c4081610bfb565b929592945050506040919091013590565b803560ff81168114610c6257600080fd5b919050565b600080600060608486031215610c7c57600080fd5b83359250610c8c60208501610c51565b9150610c9a60408501610c51565b90509250925092565b8015158114610ba857600080fd5b60008060408385031215610cc457600080fd5b8235610ccf81610bfb565b91506020830135610cdf81610ca3565b809150509250929050565b600060208284031215610cfc57600080fd5b8135610d0781610bfb565b9392505050565b60008060408385031215610d2157600080fd5b505080516020909101519092909150565b6020808252818101527f4f776e61626c653a2063616c6c6572206973206e6f7420746865206f776e6572604082015260600190565b600060208284031215610d7957600080fd5b5051919050565b600060208284031215610d9257600080fd5b8151610d0781610bfb565b6001600160a01b039384168152919092166020820152604081019190915260600190565b600060208284031215610dd357600080fd5b8151610d0781610ca356fea264697066735822122034b07854f37d135c266b109c35b4ac46fc112b5cdc098af3d83481e09ae3260c64736f6c63430008090033",
    "linkReferences": {
        "contracts/lib/DecimalLib.sol": {
            "DecimalLib": [
                {
                    "length": 20,
                    "start": 1167
                }
            ]
        }
    },
    "deployedLinkReferences": {
        "contracts/lib/DecimalLib.sol": {
            "DecimalLib": [
                {
                    "length": 20,
                    "start": 927
                }
            ]
        }
    }
}