{
  "_format": "hh-sol-artifact-1",
  "contractName": "UXDController",
  "sourceName": "contracts/core/UXDController.sol",
  "abi": [
    {
      "inputs": [
        {
          "internalType": "address",
          "name": "registryAddress",
          "type": "address"
        }
      ],
      "stateMutability": "nonpayable",
      "type": "constructor"
    },
    {
      "inputs": [
        {
          "internalType": "address",
          "name": "token",
          "type": "address"
        },
        {
          "internalType": "address",
          "name": "owner",
          "type": "address"
        },
        {
          "internalType": "address",
          "name": "spender",
          "type": "address"
        },
        {
          "internalType": "uint256",
          "name": "amount",
          "type": "uint256"
        }
      ],
      "name": "Ctrl_Not_Approved",
      "type": "error"
    },
    {
      "inputs": [
        {
          "internalType": "address",
          "name": "token",
          "type": "address"
        }
      ],
      "name": "Ctrl_Not_Whitelisted",
      "type": "error"
    },
    {
      "inputs": [],
      "name": "ErrZeroAddress",
      "type": "error"
    },
    {
      "inputs": [
        {
          "internalType": "address",
          "name": "governor",
          "type": "address"
        },
        {
          "internalType": "address",
          "name": "sender",
          "type": "address"
        }
      ],
      "name": "NotGovernor",
      "type": "error"
    },
    {
      "anonymous": false,
      "inputs": [
        {
          "indexed": true,
          "internalType": "address",
          "name": "account",
          "type": "address"
        },
        {
          "indexed": false,
          "internalType": "uint256",
          "name": "base",
          "type": "uint256"
        },
        {
          "indexed": false,
          "internalType": "uint256",
          "name": "quote",
          "type": "uint256"
        }
      ],
      "name": "Minted",
      "type": "event"
    },
    {
      "anonymous": false,
      "inputs": [
        {
          "indexed": true,
          "internalType": "address",
          "name": "previousOwner",
          "type": "address"
        },
        {
          "indexed": true,
          "internalType": "address",
          "name": "newOwner",
          "type": "address"
        }
      ],
      "name": "OwnershipTransferred",
      "type": "event"
    },
    {
      "anonymous": false,
      "inputs": [
        {
          "indexed": true,
          "internalType": "address",
          "name": "account",
          "type": "address"
        },
        {
          "indexed": false,
          "internalType": "uint256",
          "name": "base",
          "type": "uint256"
        },
        {
          "indexed": false,
          "internalType": "uint256",
          "name": "quote",
          "type": "uint256"
        }
      ],
      "name": "Redeemed",
      "type": "event"
    },
    {
      "anonymous": false,
      "inputs": [
        {
          "indexed": true,
          "internalType": "address",
          "name": "by",
          "type": "address"
        },
        {
          "indexed": true,
          "internalType": "address",
          "name": "newRouter",
          "type": "address"
        }
      ],
      "name": "RouterUpdated",
      "type": "event"
    },
    {
      "anonymous": false,
      "inputs": [
        {
          "indexed": true,
          "internalType": "address",
          "name": "by",
          "type": "address"
        },
        {
          "indexed": true,
          "internalType": "address",
          "name": "token",
          "type": "address"
        },
        {
          "indexed": false,
          "internalType": "bool",
          "name": "isWhitelisted",
          "type": "bool"
        },
        {
          "indexed": false,
          "internalType": "bool",
          "name": "isBaseToken",
          "type": "bool"
        }
      ],
      "name": "WhitelistUpdated",
      "type": "event"
    },
    {
      "inputs": [
        {
          "internalType": "address",
          "name": "",
          "type": "address"
        }
      ],
      "name": "collateralDeposited",
      "outputs": [
        {
          "internalType": "uint256",
          "name": "",
          "type": "uint256"
        }
      ],
      "stateMutability": "view",
      "type": "function"
    },
    {
      "inputs": [
        {
          "internalType": "uint256",
          "name": "",
          "type": "uint256"
        }
      ],
      "name": "collateralList",
      "outputs": [
        {
          "internalType": "address",
          "name": "",
          "type": "address"
        }
      ],
      "stateMutability": "view",
      "type": "function"
    },
    {
      "inputs": [
        {
          "internalType": "address",
          "name": "",
          "type": "address"
        }
      ],
      "name": "collateralTokens",
      "outputs": [
        {
          "internalType": "bool",
          "name": "",
          "type": "bool"
        }
      ],
      "stateMutability": "view",
      "type": "function"
    },
    {
      "inputs": [
        {
          "internalType": "address",
          "name": "market",
          "type": "address"
        },
        {
          "internalType": "address",
          "name": "collateralToken",
          "type": "address"
        },
        {
          "internalType": "uint256",
          "name": "amount",
          "type": "uint256"
        }
      ],
      "name": "depositInsurance",
      "outputs": [],
      "stateMutability": "nonpayable",
      "type": "function"
    },
    {
      "inputs": [],
      "name": "getCollateralInfo",
      "outputs": [
        {
          "components": [
            {
              "internalType": "address",
              "name": "token",
              "type": "address"
            },
            {
              "internalType": "uint256",
              "name": "redeemable",
              "type": "uint256"
            },
            {
              "internalType": "uint256",
              "name": "minted",
              "type": "uint256"
            }
          ],
          "internalType": "struct UXDController.CollateralInfo[]",
          "name": "info",
          "type": "tuple[]"
        }
      ],
      "stateMutability": "view",
      "type": "function"
    },
    {
      "inputs": [],
      "name": "governor",
      "outputs": [
        {
          "internalType": "address",
          "name": "",
          "type": "address"
        }
      ],
      "stateMutability": "view",
      "type": "function"
    },
    {
      "inputs": [],
      "name": "insuranceToken",
      "outputs": [
        {
          "internalType": "contract IERC20",
          "name": "",
          "type": "address"
        }
      ],
      "stateMutability": "view",
      "type": "function"
    },
    {
      "inputs": [
        {
          "internalType": "address",
          "name": "market",
          "type": "address"
        },
        {
          "internalType": "address",
          "name": "collateralToken",
          "type": "address"
        },
        {
          "internalType": "uint256",
          "name": "collateralAmount",
          "type": "uint256"
        },
        {
          "internalType": "uint160",
          "name": "sqrtPriceLimitX96",
          "type": "uint160"
        }
      ],
      "name": "mint",
      "outputs": [],
      "stateMutability": "nonpayable",
      "type": "function"
    },
    {
      "inputs": [
        {
          "internalType": "address",
          "name": "market",
          "type": "address"
        },
        {
          "internalType": "uint160",
          "name": "sqrtPriceLimitX96",
          "type": "uint160"
        }
      ],
      "name": "mintWithNative",
      "outputs": [],
      "stateMutability": "payable",
      "type": "function"
    },
    {
      "inputs": [
        {
          "internalType": "address",
          "name": "",
          "type": "address"
        }
      ],
      "name": "mintedPerCollateral",
      "outputs": [
        {
          "internalType": "uint256",
          "name": "",
          "type": "uint256"
        }
      ],
      "stateMutability": "view",
      "type": "function"
    },
    {
      "inputs": [],
      "name": "owner",
      "outputs": [
        {
          "internalType": "address",
          "name": "",
          "type": "address"
        }
      ],
      "stateMutability": "view",
      "type": "function"
    },
    {
      "inputs": [
        {
          "internalType": "address",
          "name": "market",
          "type": "address"
        },
        {
          "internalType": "address",
          "name": "collateralToken",
          "type": "address"
        },
        {
          "internalType": "uint256",
          "name": "redemptionAmount",
          "type": "uint256"
        },
        {
          "internalType": "uint160",
          "name": "sqrtPriceLimitX96",
          "type": "uint160"
        }
      ],
      "name": "redeem",
      "outputs": [],
      "stateMutability": "nonpayable",
      "type": "function"
    },
    {
      "inputs": [
        {
          "internalType": "address",
          "name": "market",
          "type": "address"
        },
        {
          "internalType": "uint256",
          "name": "redemptionAmount",
          "type": "uint256"
        },
        {
          "internalType": "uint160",
          "name": "sqrtPriceLimitX96",
          "type": "uint160"
        }
      ],
      "name": "redeemNative",
      "outputs": [],
      "stateMutability": "nonpayable",
      "type": "function"
    },
    {
      "inputs": [
        {
          "internalType": "address",
          "name": "",
          "type": "address"
        }
      ],
      "name": "redeemable",
      "outputs": [
        {
          "internalType": "uint256",
          "name": "",
          "type": "uint256"
        }
      ],
      "stateMutability": "view",
      "type": "function"
    },
    {
      "inputs": [],
      "name": "registry",
      "outputs": [
        {
          "internalType": "contract IContractRegistry",
          "name": "",
          "type": "address"
        }
      ],
      "stateMutability": "view",
      "type": "function"
    },
    {
      "inputs": [],
      "name": "renounceOwnership",
      "outputs": [],
      "stateMutability": "nonpayable",
      "type": "function"
    },
    {
      "inputs": [],
      "name": "router",
      "outputs": [
        {
          "internalType": "contract IDEXRouter",
          "name": "",
          "type": "address"
        }
      ],
      "stateMutability": "view",
      "type": "function"
    },
    {
      "inputs": [
        {
          "internalType": "address",
          "name": "_token",
          "type": "address"
        }
      ],
      "name": "setInsuranceToken",
      "outputs": [],
      "stateMutability": "nonpayable",
      "type": "function"
    },
    {
      "inputs": [
        {
          "internalType": "address",
          "name": "_router",
          "type": "address"
        }
      ],
      "name": "setRouter",
      "outputs": [],
      "stateMutability": "nonpayable",
      "type": "function"
    },
    {
      "inputs": [
        {
          "internalType": "address",
          "name": "_token",
          "type": "address"
        }
      ],
      "name": "setToken",
      "outputs": [],
      "stateMutability": "nonpayable",
      "type": "function"
    },
    {
      "inputs": [
        {
          "internalType": "address",
          "name": "newOwner",
          "type": "address"
        }
      ],
      "name": "transferOwnership",
      "outputs": [],
      "stateMutability": "nonpayable",
      "type": "function"
    },
    {
      "inputs": [],
      "name": "uxdToken",
      "outputs": [
        {
          "internalType": "contract UXDToken",
          "name": "",
          "type": "address"
        }
      ],
      "stateMutability": "view",
      "type": "function"
    },
    {
      "inputs": [
        {
          "internalType": "address",
          "name": "tokenAddress",
          "type": "address"
        },
        {
          "internalType": "bool",
          "name": "isWhitelisted",
          "type": "bool"
        },
        {
          "internalType": "bool",
          "name": "isBaseToken",
          "type": "bool"
        }
      ],
      "name": "whitelistCollateral",
      "outputs": [],
      "stateMutability": "nonpayable",
      "type": "function"
    },
    {
      "inputs": [
        {
          "internalType": "address",
          "name": "market",
          "type": "address"
        },
        {
          "internalType": "address",
          "name": "collateralToken",
          "type": "address"
        },
        {
          "internalType": "uint256",
          "name": "amount",
          "type": "uint256"
        },
        {
          "internalType": "address",
          "name": "to",
          "type": "address"
        }
      ],
      "name": "withdrawInsuranceTo",
      "outputs": [],
      "stateMutability": "nonpayable",
      "type": "function"
    }
  ],
  "bytecode": "0x6080604052600880546001600160a01b03191690553480156200002157600080fd5b5060405162002491380380620024918339810160408190526200004491620000ca565b8062000050336200007a565b600180546001600160a01b0319166001600160a01b039290921691909117815560025550620000fc565b600080546001600160a01b038381166001600160a01b0319831681178455604051919092169283917f8be0079c531659141344cd1fd0a4f28419497f9722a3daafe3b4186f6b6457e09190a35050565b600060208284031215620000dd57600080fd5b81516001600160a01b0381168114620000f557600080fd5b9392505050565b612385806200010c6000396000f3fe60806040526004361061018b5760003560e01c8063715018a6116100d6578063cffbc2971161007f578063f413649d11610059578063f413649d1461048e578063f7439dd4146104ae578063f887ea40146104c157600080fd5b8063cffbc2971461040e578063d765521a1461044e578063f2fde38b1461046e57600080fd5b80637f53376a116100b05780637f53376a146103b05780638da5cb5b146103d0578063c0d78655146103ee57600080fd5b8063715018a61461035b5780637b103999146103705780637d391f751461039057600080fd5b80633024a91211610138578063484267a411610112578063484267a4146102ee578063605b8de71461031b5780637110f9151461033b57600080fd5b80633024a9121461028157806335678728146102a157806337ffc324146102c157600080fd5b8063144fa6d711610169578063144fa6d71461021d5780632e0bcb431461023f5780632e13168b1461026157600080fd5b806307159868146101905780630a4b9ec2146101cd5780630c340a2414610208575b600080fd5b34801561019c57600080fd5b506004546101b0906001600160a01b031681565b6040516001600160a01b0390911681526020015b60405180910390f35b3480156101d957600080fd5b506101fa6101e8366004611eea565b600a6020526000908152604090205481565b6040519081526020016101c4565b34801561021457600080fd5b506101b06104e1565b34801561022957600080fd5b5061023d610238366004611eea565b61057c565b005b34801561024b57600080fd5b50610254610643565b6040516101c49190611f07565b34801561026d57600080fd5b5061023d61027c366004611f77565b610767565b34801561028d57600080fd5b506101b061029c366004611fc2565b610855565b3480156102ad57600080fd5b5061023d6102bc366004611fdb565b61087f565b3480156102cd57600080fd5b506101fa6102dc366004611eea565b600b6020526000908152604090205481565b3480156102fa57600080fd5b506101fa610309366004611eea565b600c6020526000908152604090205481565b34801561032757600080fd5b5061023d610336366004611fdb565b610e07565b34801561034757600080fd5b5061023d610356366004611eea565b610f18565b34801561036757600080fd5b5061023d610f96565b34801561037c57600080fd5b506001546101b0906001600160a01b031681565b34801561039c57600080fd5b506003546101b0906001600160a01b031681565b3480156103bc57600080fd5b5061023d6103cb366004611fdb565b610ffc565b3480156103dc57600080fd5b506000546001600160a01b03166101b0565b3480156103fa57600080fd5b5061023d610409366004611eea565b6112d4565b34801561041a57600080fd5b5061043e610429366004611eea565b60066020526000908152604090205460ff1681565b60405190151581526020016101c4565b34801561045a57600080fd5b5061023d61046936600461202e565b611352565b34801561047a57600080fd5b5061023d610489366004611eea565b611660565b34801561049a57600080fd5b5061023d6104a936600461206f565b611742565b61023d6104bc3660046120a6565b6119c3565b3480156104cd57600080fd5b506005546101b0906001600160a01b031681565b600154604080517f0c340a2400000000000000000000000000000000000000000000000000000000815290516000926001600160a01b031691630c340a24916004808301926020929190829003018186803b15801561053f57600080fd5b505afa158015610553573d6000803e3d6000fd5b505050506040513d601f19601f8201168201806040525081019061057791906120df565b905090565b6105846104e1565b6001600160a01b0316336001600160a01b0316146105ed576105a46104e1565b6040517fb38400080000000000000000000000000000000000000000000000000000000081526001600160a01b0390911660048201523360248201526044015b60405180910390fd5b6001600160a01b03811661061457604051630ecc6fdf60e41b815260040160405180910390fd5b6003805473ffffffffffffffffffffffffffffffffffffffff19166001600160a01b0392909216919091179055565b60075460609067ffffffffffffffff811115610661576106616120fc565b6040519080825280602002602001820160405280156106bf57816020015b6106ac604051806060016040528060006001600160a01b0316815260200160008152602001600081525090565b81526020019060019003908161067f5790505b50905060005b600754811015610763576000600782815481106106e4576106e4612112565b6000918252602080832090910154604080516060810182526001600160a01b03909216808352808552600c84528185205483850152808552600b909352928390205492810192909252845190925084908490811061074457610744612112565b602002602001018190525050808061075b9061213e565b9150506106c5565b5090565b61076f6104e1565b6001600160a01b0316336001600160a01b03161461078f576105a46104e1565b6001600160a01b03831660009081526006602090815260408083208054861580157fffffffffffffffffffffffffffffffffffffffffffffffffffffffffffffff009283161790925560099093529220805484151592169190911790556107fe576107f983611c29565b610807565b61080783611cde565b60408051831515815282151560208201526001600160a01b0385169133917fa1722c493396a9db8ab972a884fcc6028f1eb1a84c51a04316bb4293a263cb52910160405180910390a3505050565b6007818154811061086557600080fd5b6000918252602090912001546001600160a01b0316905081565b6001600160a01b03831660009081526006602052604090205460ff166108dc576040517f799566630000000000000000000000000000000000000000000000000000000081526001600160a01b03841660048201526024016105e4565b6040517fdd62ed3e0000000000000000000000000000000000000000000000000000000081523360048201819052306024830152849184906001600160a01b0384169063dd62ed3e9060440160206040518083038186803b15801561094057600080fd5b505afa158015610954573d6000803e3d6000fd5b505050506040513d601f19601f820116820180604052508101906109789190612159565b10156109c65760405162461bcd60e51b815260206004820152600d60248201527f43543a2021417070726f7665640000000000000000000000000000000000000060448201526064016105e4565b6005546040517f2c147b750000000000000000000000000000000000000000000000000000000081526001600160a01b038881166004830152848116926323b872dd92859290911690632c147b759060240160206040518083038186803b158015610a3057600080fd5b505afa158015610a44573d6000803e3d6000fd5b505050506040513d601f19601f82011682018060405250810190610a6891906120df565b6040517fffffffff0000000000000000000000000000000000000000000000000000000060e085901b1681526001600160a01b0392831660048201529116602482015260448101879052606401602060405180830381600087803b158015610acf57600080fd5b505af1158015610ae3573d6000803e3d6000fd5b505050506040513d601f19601f82011682018060405250810190610b079190612172565b506000610b8f610b8a846001600160a01b031663313ce5676040518163ffffffff1660e01b815260040160206040518083038186803b158015610b4957600080fd5b505afa158015610b5d573d6000803e3d6000fd5b505050506040513d601f19601f82011682018060405250810190610b81919061218f565b87906012611def565b611e23565b6001600160a01b03878116600081815260096020908152604080832054815160c0810183528e8716815292830187815260ff90911680151584840190815260608501968752608085018e81528d891660a0870190815260055495517fb46e57f700000000000000000000000000000000000000000000000000000000815287518b16600482015294516024860152915115156044850152965188166064840152955160848301529451861660a48201529596509294909391928392169063b46e57f79060c4016040805180830381600087803b158015610c6e57600080fd5b505af1158015610c82573d6000803e3d6000fd5b505050506040513d601f19601f82011682018060405250810190610ca691906121b2565b6001600160a01b038c166000908152600a60205260408120805493955091935083928c929190610cd79084906121d6565b90915550506001600160a01b038b166000908152600c6020526040812080548c9290610d049084906121d6565b90915550506001600160a01b038b166000908152600b602052604081208054839290610d319084906121d6565b90915550506003546040517f40c10f190000000000000000000000000000000000000000000000000000000081526001600160a01b03898116600483015260248201849052909116906340c10f1990604401600060405180830381600087803b158015610d9d57600080fd5b505af1158015610db1573d6000803e3d6000fd5b505060408051868152602081018590526001600160a01b038b1693507f25b428dfde728ccfaddad7e29e4ac23c24ed7fd1a6e3e3f91894a9a073f5dfff92500160405180910390a2505050505050505050505050565b610e0f6104e1565b6001600160a01b0316336001600160a01b031614610e2f576105a46104e1565b6001600160a01b038116610e5657604051630ecc6fdf60e41b815260040160405180910390fd5b6001600160a01b0383166000908152600a602052604081208054849290610e7e9084906121ee565b90915550506005546040517fd88c030e0000000000000000000000000000000000000000000000000000000081526001600160a01b03868116600483015285811660248301526044820185905283811660648301529091169063d88c030e90608401600060405180830381600087803b158015610efa57600080fd5b505af1158015610f0e573d6000803e3d6000fd5b5050505050505050565b610f206104e1565b6001600160a01b0316336001600160a01b031614610f40576105a46104e1565b6001600160a01b038116610f6757604051630ecc6fdf60e41b815260040160405180910390fd5b6004805473ffffffffffffffffffffffffffffffffffffffff19166001600160a01b0392909216919091179055565b6000546001600160a01b03163314610ff05760405162461bcd60e51b815260206004820181905260248201527f4f776e61626c653a2063616c6c6572206973206e6f7420746865206f776e657260448201526064016105e4565b610ffa6000611e3d565b565b6001600160a01b03831660009081526006602052604090205460ff16611059576040517f799566630000000000000000000000000000000000000000000000000000000081526001600160a01b03841660048201526024016105e4565b33600061106584611e23565b6040805160e0810182526001600160a01b0389811682526020820184815260018385019081528a8316606085019081526000608086018181528b861660a088019081528b871660c0890190815260055499517f3e0202df000000000000000000000000000000000000000000000000000000008152895189166004820152965160248801529451151560448701529251861660648601525160848501529051841660a48401529051831660c48301529495509193928392911690633e0202df9060e4016040805180830381600087803b15801561114157600080fd5b505af1158015611155573d6000803e3d6000fd5b505050506040513d601f19601f8201168201806040525081019061117991906121b2565b6001600160a01b038a166000908152600a60205260408120805493955091935084926111a69084906121ee565b90915550506001600160a01b0388166000908152600c6020526040812080548492906111d39084906121ee565b90915550506001600160a01b0388166000908152600b6020526040812080548392906112009084906121ee565b90915550506003546040517f9dc29fac0000000000000000000000000000000000000000000000000000000081526001600160a01b0387811660048301526024820184905290911690639dc29fac90604401600060405180830381600087803b15801561126c57600080fd5b505af1158015611280573d6000803e3d6000fd5b505060408051858152602081018590526001600160a01b03891693507ff3a670cd3af7d64b488926880889d08a8585a138ff455227af6737339a1ec2629250015b60405180910390a2505050505050505050565b6112dc6104e1565b6001600160a01b0316336001600160a01b0316146112fc576105a46104e1565b6001600160a01b03811661132357604051630ecc6fdf60e41b815260040160405180910390fd5b6005805473ffffffffffffffffffffffffffffffffffffffff19166001600160a01b0392909216919091179055565b61135a6104e1565b6001600160a01b0316336001600160a01b03161461137a576105a46104e1565b6040517fdd62ed3e0000000000000000000000000000000000000000000000000000000081523360048201819052306024830152839183906001600160a01b0384169063dd62ed3e9060440160206040518083038186803b1580156113de57600080fd5b505afa1580156113f2573d6000803e3d6000fd5b505050506040513d601f19601f820116820180604052508101906114169190612159565b10156114645760405162461bcd60e51b815260206004820152600d60248201527f43543a2021417070726f7665640000000000000000000000000000000000000060448201526064016105e4565b6005546040517f2c147b750000000000000000000000000000000000000000000000000000000081526001600160a01b0387811660048301526000921690632c147b759060240160206040518083038186803b1580156114c357600080fd5b505afa1580156114d7573d6000803e3d6000fd5b505050506040513d601f19601f820116820180604052508101906114fb91906120df565b6001600160a01b0386166000908152600a60205260408120805492935086929091906115289084906121d6565b90915550506040517f23b872dd0000000000000000000000000000000000000000000000000000000081526001600160a01b0383811660048301528281166024830152604482018690528416906323b872dd90606401602060405180830381600087803b15801561159857600080fd5b505af11580156115ac573d6000803e3d6000fd5b505050506040513d601f19601f820116820180604052508101906115d09190612172565b506005546040517f449ee1420000000000000000000000000000000000000000000000000000000081526001600160a01b0388811660048301528781166024830152604482018790529091169063449ee14290606401600060405180830381600087803b15801561164057600080fd5b505af1158015611654573d6000803e3d6000fd5b50505050505050505050565b6000546001600160a01b031633146116ba5760405162461bcd60e51b815260206004820181905260248201527f4f776e61626c653a2063616c6c6572206973206e6f7420746865206f776e657260448201526064016105e4565b6001600160a01b0381166117365760405162461bcd60e51b815260206004820152602660248201527f4f776e61626c653a206e6577206f776e657220697320746865207a65726f206160448201527f646472657373000000000000000000000000000000000000000000000000000060648201526084016105e4565b61173f81611e3d565b50565b33600061174e84611e23565b6040805160e0810182526001600160a01b0388811682526020820184815260018385019081526008548316606085019081526000608086018181528b861660a088019081528b871660c0890190815260055499517f9e8462d6000000000000000000000000000000000000000000000000000000008152895189166004820152965160248801529451151560448701529251861660648601525160848501529051841660a48401529051831660c48301529495509193928392911690639e8462d69060e4016040805180830381600087803b15801561182c57600080fd5b505af1158015611840573d6000803e3d6000fd5b505050506040513d601f19601f8201168201806040525081019061186491906121b2565b6008546001600160a01b03166000908152600a60205260408120805493955091935084926118939084906121ee565b90915550506008546001600160a01b03166000908152600c6020526040812080548492906118c29084906121ee565b90915550506008546001600160a01b03166000908152600b6020526040812080548392906118f19084906121ee565b90915550506003546040517f9dc29fac0000000000000000000000000000000000000000000000000000000081526001600160a01b0387811660048301526024820184905290911690639dc29fac90604401600060405180830381600087803b15801561195d57600080fd5b505af1158015611971573d6000803e3d6000fd5b505060408051858152602081018590526001600160a01b03891693507ff3a670cd3af7d64b488926880889d08a8585a138ff455227af6737339a1ec26292500160405180910390a25050505050505050565b343360006119d083611e23565b6040805160c0810182526001600160a01b038881168252602082018481526001838501908152600854831660608501908152608085018a81528b851660a0870190815260055497517f6edd37950000000000000000000000000000000000000000000000000000000081528751871660048201529451602486015292511515604485015290518416606484015251608483015251821660a4820152939450909260009283921690636edd379590349060c40160408051808303818588803b158015611a9a57600080fd5b505af1158015611aae573d6000803e3d6000fd5b50505050506040513d601f19601f82011682018060405250810190611ad391906121b2565b6008546001600160a01b03166000908152600a602052604081208054939550919350839289929190611b069084906121d6565b90915550506008546001600160a01b03166000908152600c602052604081208054899290611b359084906121d6565b90915550506008546001600160a01b03166000908152600b602052604081208054839290611b649084906121d6565b90915550506003546040517f40c10f190000000000000000000000000000000000000000000000000000000081526001600160a01b03888116600483015260248201849052909116906340c10f1990604401600060405180830381600087803b158015611bd057600080fd5b505af1158015611be4573d6000803e3d6000fd5b505060408051868152602081018590526001600160a01b038a1693507f25b428dfde728ccfaddad7e29e4ac23c24ed7fd1a6e3e3f91894a9a073f5dfff9250016112c1565b60005b600754811015611c7e5760078181548110611c4957611c49612112565b6000918252602090912001546001600160a01b0383811691161415611c6c575050565b80611c768161213e565b915050611c2c565b50600780546001810182556000919091527fa66cc928b5edb82af9bd49922954155ab7b0942694bea4ce44661d9a8736c68801805473ffffffffffffffffffffffffffffffffffffffff19166001600160a01b0392909216919091179055565b60001960005b600754811015611d3a5760078181548110611d0157611d01612112565b6000918252602090912001546001600160a01b0384811691161415611d2857809150611d3a565b80611d328161213e565b915050611ce4565b506000198114611deb5760078054611d50612112565b600091825260209091200154600780546001600160a01b039092169183908110611d7c57611d7c612112565b9060005260206000200160006101000a8154816001600160a01b0302191690836001600160a01b031602179055506007805480611dbb57611dbb612205565b6000828152602090208101600019908101805473ffffffffffffffffffffffffffffffffffffffff191690550190555b5050565b6000611dfc83600a6122ff565b611e0783600a6122ff565b611e11908661230e565b611e1b919061232d565b949350505050565b6000611e3782670ddd2935029d8000611e9a565b92915050565b600080546001600160a01b0383811673ffffffffffffffffffffffffffffffffffffffff19831681178455604051919092169283917f8be0079c531659141344cd1fd0a4f28419497f9722a3daafe3b4186f6b6457e09190a35050565b6000611eaf8383670de0b6b3a7640000611eb6565b9392505050565b828202811515841585830485141716611ece57600080fd5b0492915050565b6001600160a01b038116811461173f57600080fd5b600060208284031215611efc57600080fd5b8135611eaf81611ed5565b602080825282518282018190526000919060409081850190868401855b82811015611f5c57815180516001600160a01b0316855286810151878601528501518585015260609093019290850190600101611f24565b5091979650505050505050565b801515811461173f57600080fd5b600080600060608486031215611f8c57600080fd5b8335611f9781611ed5565b92506020840135611fa781611f69565b91506040840135611fb781611f69565b809150509250925092565b600060208284031215611fd457600080fd5b5035919050565b60008060008060808587031215611ff157600080fd5b8435611ffc81611ed5565b9350602085013561200c81611ed5565b925060408501359150606085013561202381611ed5565b939692955090935050565b60008060006060848603121561204357600080fd5b833561204e81611ed5565b9250602084013561205e81611ed5565b929592945050506040919091013590565b60008060006060848603121561208457600080fd5b833561208f81611ed5565b9250602084013591506040840135611fb781611ed5565b600080604083850312156120b957600080fd5b82356120c481611ed5565b915060208301356120d481611ed5565b809150509250929050565b6000602082840312156120f157600080fd5b8151611eaf81611ed5565b634e487b7160e01b600052604160045260246000fd5b634e487b7160e01b600052603260045260246000fd5b634e487b7160e01b600052601160045260246000fd5b600060001982141561215257612152612128565b5060010190565b60006020828403121561216b57600080fd5b5051919050565b60006020828403121561218457600080fd5b8151611eaf81611f69565b6000602082840312156121a157600080fd5b815160ff81168114611eaf57600080fd5b600080604083850312156121c557600080fd5b505080516020909101519092909150565b600082198211156121e9576121e9612128565b500190565b60008282101561220057612200612128565b500390565b634e487b7160e01b600052603160045260246000fd5b600181815b8085111561225657816000190482111561223c5761223c612128565b8085161561224957918102915b93841c9390800290612220565b509250929050565b60008261226d57506001611e37565b8161227a57506000611e37565b8160018114612290576002811461229a576122b6565b6001915050611e37565b60ff8411156122ab576122ab612128565b50506001821b611e37565b5060208310610133831016604e8410600b84101617156122d9575081810a611e37565b6122e3838361221b565b80600019048211156122f7576122f7612128565b029392505050565b6000611eaf60ff84168361225e565b600081600019048311821515161561232857612328612128565b500290565b60008261234a57634e487b7160e01b600052601260045260246000fd5b50049056fea26469706673582212200b4ec3e6e4e80c44a16e114b9e615a051eacac8faeea078a58a4b2c61935e65164736f6c63430008090033",
  "linkReferences": {},
  "deployedLinkReferences": {}
}