{
  "_format": "hh-sol-artifact-1",
  "contractName": "PerpAccountProxy",
  "sourceName": "contracts/exchanges/perp/PerpAccountProxy.sol",
  "abi": [
    {
      "inputs": [
        {
          "internalType": "address",
          "name": "_accountContract",
          "type": "address"
        },
        {
          "internalType": "address",
          "name": "_clearingHouse",
          "type": "address"
        }
      ],
      "stateMutability": "nonpayable",
      "type": "constructor"
    },
    {
      "inputs": [
        {
          "internalType": "address",
          "name": "account",
          "type": "address"
        },
        {
          "internalType": "address",
          "name": "baseToken",
          "type": "address"
        }
      ],
      "name": "getAccountInfo",
      "outputs": [
        {
          "components": [
            {
              "internalType": "int256",
              "name": "takerPositionSize",
              "type": "int256"
            },
            {
              "internalType": "int256",
              "name": "takerOpenNotional",
              "type": "int256"
            },
            {
              "internalType": "int256",
              "name": "lastTwPremiumGrowthGlobalX96",
              "type": "int256"
            }
          ],
          "internalType": "struct AccountMarket.Info",
          "name": "",
          "type": "tuple"
        }
      ],
      "stateMutability": "view",
      "type": "function"
    },
    {
      "inputs": [
        {
          "internalType": "address",
          "name": "account",
          "type": "address"
        }
      ],
      "name": "getAccountValue",
      "outputs": [
        {
          "internalType": "int256",
          "name": "",
          "type": "int256"
        }
      ],
      "stateMutability": "view",
      "type": "function"
    },
    {
      "inputs": [
        {
          "internalType": "address",
          "name": "account",
          "type": "address"
        }
      ],
      "name": "getPnlAndPendingFee",
      "outputs": [
        {
          "internalType": "int256",
          "name": "",
          "type": "int256"
        },
        {
          "internalType": "int256",
          "name": "",
          "type": "int256"
        },
        {
          "internalType": "uint256",
          "name": "",
          "type": "uint256"
        }
      ],
      "stateMutability": "view",
      "type": "function"
    },
    {
      "inputs": [
        {
          "internalType": "address",
          "name": "account",
          "type": "address"
        }
      ],
      "name": "getTotalAbsPositionValue",
      "outputs": [
        {
          "internalType": "uint256",
          "name": "",
          "type": "uint256"
        }
      ],
      "stateMutability": "view",
      "type": "function"
    },
    {
      "inputs": [
        {
          "internalType": "address",
          "name": "account",
          "type": "address"
        }
      ],
      "name": "getTotalDebtValue",
      "outputs": [
        {
          "internalType": "uint256",
          "name": "",
          "type": "uint256"
        }
      ],
      "stateMutability": "view",
      "type": "function"
    },
    {
      "inputs": [
        {
          "internalType": "address",
          "name": "account",
          "type": "address"
        },
        {
          "internalType": "address",
          "name": "baseToken",
          "type": "address"
        }
      ],
      "name": "getTotalOpenNotional",
      "outputs": [
        {
          "internalType": "int256",
          "name": "",
          "type": "int256"
        }
      ],
      "stateMutability": "view",
      "type": "function"
    },
    {
      "inputs": [
        {
          "internalType": "address",
          "name": "account",
          "type": "address"
        },
        {
          "internalType": "address",
          "name": "baseToken",
          "type": "address"
        }
      ],
      "name": "getTotalPositionSize",
      "outputs": [
        {
          "internalType": "int256",
          "name": "",
          "type": "int256"
        }
      ],
      "stateMutability": "view",
      "type": "function"
    },
    {
      "inputs": [
        {
          "internalType": "address",
          "name": "account",
          "type": "address"
        },
        {
          "internalType": "address",
          "name": "baseToken",
          "type": "address"
        }
      ],
      "name": "getTotalPositionValue",
      "outputs": [
        {
          "internalType": "int256",
          "name": "",
          "type": "int256"
        }
      ],
      "stateMutability": "view",
      "type": "function"
    },
    {
      "inputs": [],
      "name": "perpAccount",
      "outputs": [
        {
          "internalType": "contract IAccountBalance",
          "name": "",
          "type": "address"
        }
      ],
      "stateMutability": "view",
      "type": "function"
    },
    {
      "inputs": [],
      "name": "perpClearingHouse",
      "outputs": [
        {
          "internalType": "contract IClearingHouse",
          "name": "",
          "type": "address"
        }
      ],
      "stateMutability": "view",
      "type": "function"
    }
  ],
  "bytecode": "0x608060405234801561001057600080fd5b506040516106fe3803806106fe83398101604081905261002f9161007c565b600080546001600160a01b039384166001600160a01b031991821617909155600180549290931691161790556100af565b80516001600160a01b038116811461007757600080fd5b919050565b6000806040838503121561008f57600080fd5b61009883610060565b91506100a660208401610060565b90509250929050565b610640806100be6000396000f3fe608060405234801561001057600080fd5b506004361061009e5760003560e01c806368f12e121161006657806368f12e121461014f578063698a6ef8146101625780636ccdc82e14610175578063b394569014610188578063bba85bcf1461019b57600080fd5b8063293a5077146100a35780633f935107146100c95780635ae80951146100dc578063616516f2146100ef5780636332fef61461011a575b600080fd5b6100b66100b136600461050b565b6101c9565b6040519081526020015b60405180910390f35b6100b66100d7366004610526565b61024e565b6100b66100ea36600461050b565b6102dc565b600154610102906001600160a01b031681565b6040516001600160a01b0390911681526020016100c0565b61012d610128366004610526565b61030f565b60408051825181526020808401519082015291810151908201526060016100c0565b6100b661015d366004610526565b6103b8565b600054610102906001600160a01b031681565b6100b661018336600461050b565b6103f3565b6100b6610196366004610526565b610426565b6101ae6101a936600461050b565b610461565b604080519384526020840192909252908201526060016100c0565b6000805460405163293a507760e01b81526001600160a01b0384811660048301529091169063293a5077906024015b60206040518083038186803b15801561021057600080fd5b505afa158015610224573d6000803e3d6000fd5b505050506040513d601f19601f820116820180604052508101906102489190610559565b92915050565b60008054604051633f93510760e01b81526001600160a01b038581166004830152848116602483015290911690633f935107906044015b60206040518083038186803b15801561029d57600080fd5b505afa1580156102b1573d6000803e3d6000fd5b505050506040513d601f19601f820116820180604052508101906102d59190610559565b9392505050565b600154604051635ae8095160e01b81526001600160a01b0383811660048301526000921690635ae80951906024016101f8565b61033360405180606001604052806000815260200160008152602001600081525090565b6000546040516331997f7b60e11b81526001600160a01b038581166004830152848116602483015290911690636332fef69060440160606040518083038186803b15801561038057600080fd5b505afa158015610394573d6000803e3d6000fd5b505050506040513d601f19601f820116820180604052508101906102d59190610572565b60008054604051633478970960e11b81526001600160a01b0385811660048301528481166024830152909116906368f12e1290604401610285565b60008054604051633666e41760e11b81526001600160a01b03848116600483015290911690636ccdc82e906024016101f8565b60008054604051630b39456960e41b81526001600160a01b03858116600483015284811660248301529091169063b394569090604401610285565b6000805460405163bba85bcf60e01b81526001600160a01b0384811660048301528392839291169063bba85bcf9060240160606040518083038186803b1580156104aa57600080fd5b505afa1580156104be573d6000803e3d6000fd5b505050506040513d601f19601f820116820180604052508101906104e291906105dc565b9250925092509193909250565b80356001600160a01b038116811461050657600080fd5b919050565b60006020828403121561051d57600080fd5b6102d5826104ef565b6000806040838503121561053957600080fd5b610542836104ef565b9150610550602084016104ef565b90509250929050565b60006020828403121561056b57600080fd5b5051919050565b60006060828403121561058457600080fd5b6040516060810181811067ffffffffffffffff821117156105b557634e487b7160e01b600052604160045260246000fd5b80604052508251815260208301516020820152604083015160408201528091505092915050565b6000806000606084860312156105f157600080fd5b835192506020840151915060408401519050925092509256fea2646970667358221220807acb8c806398f43f81fb125193c95fd53361f7419010ea3244ebd4130f6cc064736f6c63430008090033",
  "linkReferences": {},
  "deployedLinkReferences": {}
}