{
    "_format": "hh-sol-artifact-1",
    "contractName": "PerpAccountProxy",
    "sourceName": "contracts/exchanges/perp/PerpAccountProxy.sol",
    "abi": [
        {
            "inputs": [
                {
                    "internalType": "address",
                    "name": "_accountContract",
                    "type": "address"
                }
            ],
            "stateMutability": "nonpayable",
            "type": "constructor"
        },
        {
            "inputs": [],
            "name": "accountBalance",
            "outputs": [
                {
                    "internalType": "contract IAccountBalance",
                    "name": "",
                    "type": "address"
                }
            ],
            "stateMutability": "view",
            "type": "function"
        },
        {
            "inputs": [
                {
                    "internalType": "address",
                    "name": "account",
                    "type": "address"
                },
                {
                    "internalType": "address",
                    "name": "baseToken",
                    "type": "address"
                }
            ],
            "name": "getAccountInfo",
            "outputs": [
                {
                    "components": [
                        {
                            "internalType": "int256",
                            "name": "takerPositionSize",
                            "type": "int256"
                        },
                        {
                            "internalType": "int256",
                            "name": "takerOpenNotional",
                            "type": "int256"
                        },
                        {
                            "internalType": "int256",
                            "name": "lastTwPremiumGrowthGlobalX96",
                            "type": "int256"
                        }
                    ],
                    "internalType": "struct AccountMarket.Info",
                    "name": "",
                    "type": "tuple"
                }
            ],
            "stateMutability": "view",
            "type": "function"
        },
        {
            "inputs": [
                {
                    "internalType": "address",
                    "name": "account",
                    "type": "address"
                }
            ],
            "name": "getPnlAndPendingFee",
            "outputs": [
                {
                    "internalType": "int256",
                    "name": "",
                    "type": "int256"
                },
                {
                    "internalType": "int256",
                    "name": "",
                    "type": "int256"
                },
                {
                    "internalType": "uint256",
                    "name": "",
                    "type": "uint256"
                }
            ],
            "stateMutability": "view",
            "type": "function"
        },
        {
            "inputs": [
                {
                    "internalType": "address",
                    "name": "account",
                    "type": "address"
                }
            ],
            "name": "getTotalAbsPositionValue",
            "outputs": [
                {
                    "internalType": "uint256",
                    "name": "",
                    "type": "uint256"
                }
            ],
            "stateMutability": "view",
            "type": "function"
        },
        {
            "inputs": [
                {
                    "internalType": "address",
                    "name": "account",
                    "type": "address"
                }
            ],
            "name": "getTotalDebtValue",
            "outputs": [
                {
                    "internalType": "uint256",
                    "name": "",
                    "type": "uint256"
                }
            ],
            "stateMutability": "view",
            "type": "function"
        },
        {
            "inputs": [
                {
                    "internalType": "address",
                    "name": "account",
                    "type": "address"
                },
                {
                    "internalType": "address",
                    "name": "baseToken",
                    "type": "address"
                }
            ],
            "name": "getTotalOpenNotional",
            "outputs": [
                {
                    "internalType": "int256",
                    "name": "",
                    "type": "int256"
                }
            ],
            "stateMutability": "view",
            "type": "function"
        },
        {
            "inputs": [
                {
                    "internalType": "address",
                    "name": "account",
                    "type": "address"
                },
                {
                    "internalType": "address",
                    "name": "baseToken",
                    "type": "address"
                }
            ],
            "name": "getTotalPositionSize",
            "outputs": [
                {
                    "internalType": "int256",
                    "name": "",
                    "type": "int256"
                }
            ],
            "stateMutability": "view",
            "type": "function"
        },
        {
            "inputs": [
                {
                    "internalType": "address",
                    "name": "account",
                    "type": "address"
                },
                {
                    "internalType": "address",
                    "name": "baseToken",
                    "type": "address"
                }
            ],
            "name": "getTotalPositionValue",
            "outputs": [
                {
                    "internalType": "int256",
                    "name": "",
                    "type": "int256"
                }
            ],
            "stateMutability": "view",
            "type": "function"
        }
    ],
    "bytecode": "0x608060405234801561001057600080fd5b5060405161066438038061066483398101604081905261002f91610054565b600080546001600160a01b0319166001600160a01b0392909216919091179055610084565b60006020828403121561006657600080fd5b81516001600160a01b038116811461007d57600080fd5b9392505050565b6105d1806100936000396000f3fe608060405234801561001057600080fd5b50600436106100885760003560e01c80636ccdc82e1161005b5780636ccdc82e1461010e578063b0a1c1c414610121578063b39456901461014c578063bba85bcf1461015f57600080fd5b8063293a50771461008d5780633f935107146100b35780636332fef6146100c657806368f12e12146100fb575b600080fd5b6100a061009b36600461049c565b61018d565b6040519081526020015b60405180910390f35b6100a06100c13660046104b7565b610212565b6100d96100d43660046104b7565b6102a0565b60408051825181526020808401519082015291810151908201526060016100aa565b6100a06101093660046104b7565b610349565b6100a061011c36600461049c565b610384565b600054610134906001600160a01b031681565b6040516001600160a01b0390911681526020016100aa565b6100a061015a3660046104b7565b6103b7565b61017261016d36600461049c565b6103f2565b604080519384526020840192909252908201526060016100aa565b6000805460405163293a507760e01b81526001600160a01b0384811660048301529091169063293a5077906024015b60206040518083038186803b1580156101d457600080fd5b505afa1580156101e8573d6000803e3d6000fd5b505050506040513d601f19601f8201168201806040525081019061020c91906104ea565b92915050565b60008054604051633f93510760e01b81526001600160a01b038581166004830152848116602483015290911690633f935107906044015b60206040518083038186803b15801561026157600080fd5b505afa158015610275573d6000803e3d6000fd5b505050506040513d601f19601f8201168201806040525081019061029991906104ea565b9392505050565b6102c460405180606001604052806000815260200160008152602001600081525090565b6000546040516331997f7b60e11b81526001600160a01b038581166004830152848116602483015290911690636332fef69060440160606040518083038186803b15801561031157600080fd5b505afa158015610325573d6000803e3d6000fd5b505050506040513d601f19601f820116820180604052508101906102999190610503565b60008054604051633478970960e11b81526001600160a01b0385811660048301528481166024830152909116906368f12e1290604401610249565b60008054604051633666e41760e11b81526001600160a01b03848116600483015290911690636ccdc82e906024016101bc565b60008054604051630b39456960e41b81526001600160a01b03858116600483015284811660248301529091169063b394569090604401610249565b6000805460405163bba85bcf60e01b81526001600160a01b0384811660048301528392839291169063bba85bcf9060240160606040518083038186803b15801561043b57600080fd5b505afa15801561044f573d6000803e3d6000fd5b505050506040513d601f19601f82011682018060405250810190610473919061056d565b9250925092509193909250565b80356001600160a01b038116811461049757600080fd5b919050565b6000602082840312156104ae57600080fd5b61029982610480565b600080604083850312156104ca57600080fd5b6104d383610480565b91506104e160208401610480565b90509250929050565b6000602082840312156104fc57600080fd5b5051919050565b60006060828403121561051557600080fd5b6040516060810181811067ffffffffffffffff8211171561054657634e487b7160e01b600052604160045260246000fd5b80604052508251815260208301516020820152604083015160408201528091505092915050565b60008060006060848603121561058257600080fd5b835192506020840151915060408401519050925092509256fea2646970667358221220c1204900a468d77b2e8077701ebdb438c4aaf20cf294159b52e4f6ab0781ed9e64736f6c63430008090033",
    "linkReferences": {},
    "deployedLinkReferences": {}
}